{
    "abi": [
        {
            "type": "constructor",
            "inputs": [
                {
                    "name": "name_",
                    "type": "string",
                    "internalType": "string"
                },
                {
                    "name": "symbol_",
                    "type": "string",
                    "internalType": "string"
                }
            ],
            "stateMutability": "nonpayable"
        },
        {
            "type": "function",
            "name": "addAchievement",
            "inputs": [
                {
                    "name": "tokenId",
                    "type": "uint256",
                    "internalType": "uint256"
                },
                {
                    "name": "title",
                    "type": "string",
                    "internalType": "string"
                },
                {
                    "name": "description",
                    "type": "string",
                    "internalType": "string"
                }
            ],
            "outputs": [],
            "stateMutability": "nonpayable"
        },
        {
            "type": "function",
            "name": "balanceOf",
            "inputs": [
                {
                    "name": "owner",
                    "type": "address",
                    "internalType": "address"
                }
            ],
            "outputs": [
                {
                    "name": "",
                    "type": "uint256",
                    "internalType": "uint256"
                }
            ],
            "stateMutability": "view"
        },
        {
            "type": "function",
            "name": "getAchievements",
            "inputs": [
                {
                    "name": "tokenId",
                    "type": "uint256",
                    "internalType": "uint256"
                }
            ],
            "outputs": [
                {
                    "name": "",
                    "type": "tuple[]",
                    "internalType": "struct SBTAchievement.Achievement[]",
                    "components": [
                        {
                            "name": "title",
                            "type": "string",
                            "internalType": "string"
                        },
                        {
                            "name": "description",
                            "type": "string",
                            "internalType": "string"
                        },
                        {
                            "name": "timestamp",
                            "type": "uint256",
                            "internalType": "uint256"
                        }
                    ]
                }
            ],
            "stateMutability": "view"
        },
        {
            "type": "function",
            "name": "hasAchievement",
            "inputs": [
                {
                    "name": "tokenId",
                    "type": "uint256",
                    "internalType": "uint256"
                },
                {
                    "name": "title",
                    "type": "string",
                    "internalType": "string"
                }
            ],
            "outputs": [
                {
                    "name": "",
                    "type": "bool",
                    "internalType": "bool"
                }
            ],
            "stateMutability": "view"
        },
        {
            "type": "function",
            "name": "mint",
            "inputs": [
                {
                    "name": "to",
                    "type": "address",
                    "internalType": "address"
                },
                {
                    "name": "metadataURI",
                    "type": "string",
                    "internalType": "string"
                }
            ],
            "outputs": [
                {
                    "name": "",
                    "type": "uint256",
                    "internalType": "uint256"
                }
            ],
            "stateMutability": "nonpayable"
        },
        {
            "type": "function",
            "name": "name",
            "inputs": [],
            "outputs": [
                {
                    "name": "",
                    "type": "string",
                    "internalType": "string"
                }
            ],
            "stateMutability": "view"
        },
        {
            "type": "function",
            "name": "owner",
            "inputs": [],
            "outputs": [
                {
                    "name": "",
                    "type": "address",
                    "internalType": "address"
                }
            ],
            "stateMutability": "view"
        },
        {
            "type": "function",
            "name": "ownerOf",
            "inputs": [
                {
                    "name": "tokenId",
                    "type": "uint256",
                    "internalType": "uint256"
                }
            ],
            "outputs": [
                {
                    "name": "",
                    "type": "address",
                    "internalType": "address"
                }
            ],
            "stateMutability": "view"
        },
        {
            "type": "function",
            "name": "removeAchievement",
            "inputs": [
                {
                    "name": "tokenId",
                    "type": "uint256",
                    "internalType": "uint256"
                },
                {
                    "name": "title",
                    "type": "string",
                    "internalType": "string"
                }
            ],
            "outputs": [],
            "stateMutability": "nonpayable"
        },
        {
            "type": "function",
            "name": "renounceOwnership",
            "inputs": [],
            "outputs": [],
            "stateMutability": "nonpayable"
        },
        {
            "type": "function",
            "name": "supportsInterface",
            "inputs": [
                {
                    "name": "interfaceId",
                    "type": "bytes4",
                    "internalType": "bytes4"
                }
            ],
            "outputs": [
                {
                    "name": "",
                    "type": "bool",
                    "internalType": "bool"
                }
            ],
            "stateMutability": "view"
        },
        {
            "type": "function",
            "name": "symbol",
            "inputs": [],
            "outputs": [
                {
                    "name": "",
                    "type": "string",
                    "internalType": "string"
                }
            ],
            "stateMutability": "view"
        },
        {
            "type": "function",
            "name": "tokenURI",
            "inputs": [
                {
                    "name": "tokenId",
                    "type": "uint256",
                    "internalType": "uint256"
                }
            ],
            "outputs": [
                {
                    "name": "",
                    "type": "string",
                    "internalType": "string"
                }
            ],
            "stateMutability": "view"
        },
        {
            "type": "function",
            "name": "transferOwnership",
            "inputs": [
                {
                    "name": "newOwner",
                    "type": "address",
                    "internalType": "address"
                }
            ],
            "outputs": [],
            "stateMutability": "nonpayable"
        },
        {
            "type": "event",
            "name": "Minted",
            "inputs": [
                {
                    "name": "to",
                    "type": "address",
                    "indexed": true,
                    "internalType": "address"
                },
                {
                    "name": "tokenId",
                    "type": "uint256",
                    "indexed": true,
                    "internalType": "uint256"
                }
            ],
            "anonymous": false
        },
        {
            "type": "event",
            "name": "OwnershipTransferred",
            "inputs": [
                {
                    "name": "previousOwner",
                    "type": "address",
                    "indexed": true,
                    "internalType": "address"
                },
                {
                    "name": "newOwner",
                    "type": "address",
                    "indexed": true,
                    "internalType": "address"
                }
            ],
            "anonymous": false
        },
        {
            "type": "error",
            "name": "OwnableInvalidOwner",
            "inputs": [
                {
                    "name": "owner",
                    "type": "address",
                    "internalType": "address"
                }
            ]
        },
        {
            "type": "error",
            "name": "OwnableUnauthorizedAccount",
            "inputs": [
                {
                    "name": "account",
                    "type": "address",
                    "internalType": "address"
                }
            ]
        },
        {
            "type": "error",
            "name": "SBTAlreadyHasToken",
            "inputs": [
                {
                    "name": "owner",
                    "type": "address",
                    "internalType": "address"
                }
            ]
        },
        {
            "type": "error",
            "name": "SBTInvalidOwner",
            "inputs": [
                {
                    "name": "owner",
                    "type": "address",
                    "internalType": "address"
                }
            ]
        },
        {
            "type": "error",
            "name": "SBTInvalidReceiver",
            "inputs": [
                {
                    "name": "receiver",
                    "type": "address",
                    "internalType": "address"
                }
            ]
        },
        {
            "type": "error",
            "name": "SBTNonexistentToken",
            "inputs": [
                {
                    "name": "tokenId",
                    "type": "uint256",
                    "internalType": "uint256"
                }
            ]
        },
        {
            "type": "error",
            "name": "SBTTokenAlreadyMinted",
            "inputs": [
                {
                    "name": "tokenId",
                    "type": "uint256",
                    "internalType": "uint256"
                }
            ]
        }
    ],
    "bytecode": {
        "object": "0x60806040523480156200001157600080fd5b5060405162001790380380620017908339810160408190526200003491620001b9565b3382826000620000458382620002b4565b506001620000548282620002b4565b5050506001600160a01b0381166200008657604051631e4fbdf760e01b81526000600482015260240160405180910390fd5b62000091816200009f565b505060006007555062000380565b600680546001600160a01b038381166001600160a01b0319831681179093556040519116919082907f8be0079c531659141344cd1fd0a4f28419497f9722a3daafe3b4186f6b6457e090600090a35050565b634e487b7160e01b600052604160045260246000fd5b600082601f8301126200011957600080fd5b81516001600160401b0380821115620001365762000136620000f1565b604051601f8301601f19908116603f01168101908282118183101715620001615762000161620000f1565b81604052838152602092508660208588010111156200017f57600080fd5b600091505b83821015620001a3578582018301518183018401529082019062000184565b6000602085830101528094505050505092915050565b60008060408385031215620001cd57600080fd5b82516001600160401b0380821115620001e557600080fd5b620001f38683870162000107565b935060208501519150808211156200020a57600080fd5b50620002198582860162000107565b9150509250929050565b600181811c908216806200023857607f821691505b6020821081036200025957634e487b7160e01b600052602260045260246000fd5b50919050565b601f821115620002af576000816000526020600020601f850160051c810160208610156200028a5750805b601f850160051c820191505b81811015620002ab5782815560010162000296565b5050505b505050565b81516001600160401b03811115620002d057620002d0620000f1565b620002e881620002e1845462000223565b846200025f565b602080601f831160018114620003205760008415620003075750858301515b600019600386901b1c1916600185901b178555620002ab565b600085815260208120601f198616915b82811015620003515788860151825594840194600190910190840162000330565b5085821015620003705787850151600019600388901b60f8161c191681555b5050505050600190811b01905550565b61140080620003906000396000f3fe608060405234801561001057600080fd5b50600436106100ea5760003560e01c806395d89b411161008c578063e32142da11610066578063e32142da146101d8578063f2276b31146101eb578063f2fde38b146101fe578063fcffda641461021157600080fd5b806395d89b41146101aa578063c87b56dd146101b2578063d0def521146101c557600080fd5b80636352211e116100c85780636352211e1461014c57806370a0823114610177578063715018a6146101985780638da5cb5b146101a257600080fd5b806301ffc9a7146100ef57806306fdde031461011757806318895a581461012c575b600080fd5b6101026100fd366004610d75565b610224565b60405190151581526020015b60405180910390f35b61011f610276565b60405161010e9190610de5565b61013f61013a366004610df8565b610308565b60405161010e9190610e11565b61015f61015a366004610df8565b6104d8565b6040516001600160a01b03909116815260200161010e565b61018a610185366004610ec0565b610511565b60405190815260200161010e565b6101a0610559565b005b61015f61056d565b61011f610586565b61011f6101c0366004610df8565b610595565b61018a6101d3366004610f7e565b61066e565b6101026101e6366004610fcc565b6106a1565b6101a06101f9366004610ffd565b6108c1565b6101a061020c366004610ec0565b6108d9565b6101a061021f366004610fcc565b610917565b60006001600160e01b0319821663c2d39fa960e01b148061025557506001600160e01b03198216635b5e139f60e01b145b8061027057506301ffc9a760e01b6001600160e01b03198316145b92915050565b6060600080546102859061106a565b80601f01602080910402602001604051908101604052809291908181526020018280546102b19061106a565b80156102fe5780601f106102d3576101008083540402835291602001916102fe565b820191906000526020600020905b8154815290600101906020018083116102e157829003601f168201915b5050505050905090565b60606000610315836104d8565b6001600160a01b0316036103445760405162461bcd60e51b815260040161033b906110a4565b60405180910390fd5b600082815260056020908152604080832080548251818502810185019093528083529193909284015b828210156104cd57838290600052602060002090600302016040518060600160405290816000820180546103a09061106a565b80601f01602080910402602001604051908101604052809291908181526020018280546103cc9061106a565b80156104195780601f106103ee57610100808354040283529160200191610419565b820191906000526020600020905b8154815290600101906020018083116103fc57829003601f168201915b505050505081526020016001820180546104329061106a565b80601f016020809104026020016040519081016040528092919081815260200182805461045e9061106a565b80156104ab5780601f10610480576101008083540402835291602001916104ab565b820191906000526020600020905b81548152906001019060200180831161048e57829003601f168201915b505050505081526020016002820154815250508152602001906001019061036d565b505050509050919050565b6000818152600260205260408120546001600160a01b0316806102705760405163b8816b1960e01b81526004810184905260240161033b565b60006001600160a01b03821661053d576040516315bf722160e11b81526000600482015260240161033b565b506001600160a01b031660009081526003602052604090205490565b61056161092d565b61056b600061095f565b565b60006105816006546001600160a01b031690565b905090565b6060600180546102859061106a565b6000818152600260205260409020546060906001600160a01b03166105d05760405163b8816b1960e01b81526004810183905260240161033b565b600082815260046020526040902080546105e99061106a565b80601f01602080910402602001604051908101604052809291908181526020018280546106159061106a565b80156106625780601f1061063757610100808354040283529160200191610662565b820191906000526020600020905b81548152906001019060200180831161064557829003601f168201915b50505050509050919050565b600061067861092d565b60078054908190600061068a836110fe565b919050555061069a8482856109b1565b9392505050565b6000806106ad846104d8565b6001600160a01b0316036106d35760405162461bcd60e51b815260040161033b906110a4565b600083815260056020908152604080832080548251818502810185019093528083529192909190849084015b8282101561085f57838290600052602060002090600302016040518060600160405290816000820180546107329061106a565b80601f016020809104026020016040519081016040528092919081815260200182805461075e9061106a565b80156107ab5780601f10610780576101008083540402835291602001916107ab565b820191906000526020600020905b81548152906001019060200180831161078e57829003601f168201915b505050505081526020016001820180546107c49061106a565b80601f01602080910402602001604051908101604052809291908181526020018280546107f09061106a565b801561083d5780601f106108125761010080835404028352916020019161083d565b820191906000526020600020905b81548152906001019060200180831161082057829003601f168201915b50505050508152602001600282015481525050815260200190600101906106ff565b50505050905060005b81518110156108b657838051906020012082828151811061088b5761088b611117565b60200260200101516000015180519060200120036108ae57600192505050610270565b600101610868565b506000949350505050565b6108c961092d565b6108d4838383610afa565b505050565b6108e161092d565b6001600160a01b03811661090b57604051631e4fbdf760e01b81526000600482015260240161033b565b6109148161095f565b50565b61091f61092d565b6109298282610ba1565b5050565b3361093661056d565b6001600160a01b03161461056b5760405163118cdaa760e01b815233600482015260240161033b565b600680546001600160a01b038381166001600160a01b0319831681179093556040519116919082907f8be0079c531659141344cd1fd0a4f28419497f9722a3daafe3b4186f6b6457e090600090a35050565b6001600160a01b0383166109da5760405162ee117b60e41b81526000600482015260240161033b565b6001600160a01b03831660009081526003602052604090205415610a1c57604051634ebf56b160e11b81526001600160a01b038416600482015260240161033b565b6000828152600260205260409020546001600160a01b031615610a5557604051633c5f2a1f60e21b81526004810183905260240161033b565b6001600160a01b0383166000908152600360205260408120805460019290610a7e90849061112d565b9091555050600082815260026020908152604080832080546001600160a01b0319166001600160a01b03881617905560049091529020610abe8282611190565b5060405182906001600160a01b038516907f30385c845b448a36257a6a1716e6ad2e1bc2cbe333cde1e69fe849ad6511adfe90600090a3505050565b6000610b05846104d8565b6001600160a01b031603610b2b5760405162461bcd60e51b815260040161033b906110a4565b6040805160608101825283815260208082018490524282840152600086815260058252928320805460018101825590845292208151919283926003909102909101908190610b799082611190565b5060208201516001820190610b8e9082611190565b5060408201518160020155505050505050565b6000828152600560205260408120905b8154811015610cd0578280519060200120828281548110610bd457610bd4611117565b9060005260206000209060030201600001604051610bf29190611250565b604051809103902003610cc85781548290610c0f906001906112c6565b81548110610c1f57610c1f611117565b9060005260206000209060030201828281548110610c3f57610c3f611117565b6000918252602090912060039091020180610c5a83826112d9565b50600181810190610c6d908401826112d9565b506002918201549101558154829080610c8857610c886113b4565b60008281526020812060001990920191600383020190610ca88282610d27565b610cb6600183016000610d27565b60028201600090555050905550505050565b600101610bb1565b5060405162461bcd60e51b815260206004820152602560248201527f534254416368696576656d656e743a20416368696576656d656e74206e6f7420604482015264199bdd5b9960da1b606482015260840161033b565b508054610d339061106a565b6000825580601f10610d43575050565b601f01602090049060005260206000209081019061091491905b80821115610d715760008155600101610d5d565b5090565b600060208284031215610d8757600080fd5b81356001600160e01b03198116811461069a57600080fd5b6000815180845260005b81811015610dc557602081850181015186830182015201610da9565b506000602082860101526020601f19601f83011685010191505092915050565b60208152600061069a6020830184610d9f565b600060208284031215610e0a57600080fd5b5035919050565b600060208083018184528085518083526040925060408601915060408160051b87010184880160005b83811015610e9657603f19898403018552815160608151818652610e6082870182610d9f565b915050888201518582038a870152610e788282610d9f565b92890151958901959095525094870194925090860190600101610e3a565b509098975050505050505050565b80356001600160a01b0381168114610ebb57600080fd5b919050565b600060208284031215610ed257600080fd5b61069a82610ea4565b634e487b7160e01b600052604160045260246000fd5b600082601f830112610f0257600080fd5b813567ffffffffffffffff80821115610f1d57610f1d610edb565b604051601f8301601f19908116603f01168101908282118183101715610f4557610f45610edb565b81604052838152866020858801011115610f5e57600080fd5b836020870160208301376000602085830101528094505050505092915050565b60008060408385031215610f9157600080fd5b610f9a83610ea4565b9150602083013567ffffffffffffffff811115610fb657600080fd5b610fc285828601610ef1565b9150509250929050565b60008060408385031215610fdf57600080fd5b82359150602083013567ffffffffffffffff811115610fb657600080fd5b60008060006060848603121561101257600080fd5b83359250602084013567ffffffffffffffff8082111561103157600080fd5b61103d87838801610ef1565b9350604086013591508082111561105357600080fd5b5061106086828701610ef1565b9150509250925092565b600181811c9082168061107e57607f821691505b60208210810361109e57634e487b7160e01b600052602260045260246000fd5b50919050565b60208082526024908201527f534254416368696576656d656e743a20546f6b656e20646f6573206e6f7420656040820152631e1a5cdd60e21b606082015260800190565b634e487b7160e01b600052601160045260246000fd5b600060018201611110576111106110e8565b5060010190565b634e487b7160e01b600052603260045260246000fd5b80820180821115610270576102706110e8565b601f8211156108d4576000816000526020600020601f850160051c810160208610156111695750805b601f850160051c820191505b8181101561118857828155600101611175565b505050505050565b815167ffffffffffffffff8111156111aa576111aa610edb565b6111be816111b8845461106a565b84611140565b602080601f8311600181146111f357600084156111db5750858301515b600019600386901b1c1916600185901b178555611188565b600085815260208120601f198616915b8281101561122257888601518255948401946001909101908401611203565b50858210156112405787850151600019600388901b60f8161c191681555b5050505050600190811b01905550565b600080835461125e8161106a565b60018281168015611276576001811461128b576112ba565b60ff19841687528215158302870194506112ba565b8760005260208060002060005b858110156112b15781548a820152908401908201611298565b50505082870194505b50929695505050505050565b81810381811115610270576102706110e8565b8181036112e4575050565b6112ee825461106a565b67ffffffffffffffff81111561130657611306610edb565b611314816111b8845461106a565b6000601f82116001811461134857600083156113305750848201545b600019600385901b1c1916600184901b1784556113ad565b600085815260209020601f19841690600086815260209020845b838110156113825782860154825560019586019590910190602001611362565b50858310156113a05781850154600019600388901b60f8161c191681555b50505060018360011b0184555b5050505050565b634e487b7160e01b600052603160045260246000fdfea2646970667358221220a163884da95720551d17663cc0a90a791b831a559398a11e3908de53c257e5e164736f6c63430008170033",
        "linkReferences": {}
    },
    "methodIdentifiers": {
        "addAchievement(uint256,string,string)": "f2276b31",
        "balanceOf(address)": "70a08231",
        "getAchievements(uint256)": "18895a58",
        "hasAchievement(uint256,string)": "e32142da",
        "mint(address,string)": "d0def521",
        "name()": "06fdde03",
        "owner()": "8da5cb5b",
        "ownerOf(uint256)": "6352211e",
        "removeAchievement(uint256,string)": "fcffda64",
        "renounceOwnership()": "715018a6",
        "supportsInterface(bytes4)": "01ffc9a7",
        "symbol()": "95d89b41",
        "tokenURI(uint256)": "c87b56dd",
        "transferOwnership(address)": "f2fde38b"
    },
    "id": 28
}